{
  "contractName": "Blocklist",
  "abi": [
    {
      "inputs": [],
      "payable": false,
      "stateMutability": "nonpayable",
      "type": "constructor"
    },
    {
      "constant": true,
      "inputs": [
        {
          "internalType": "uint256",
          "name": "",
          "type": "uint256"
        }
      ],
      "name": "ipArray",
      "outputs": [
        {
          "internalType": "string",
          "name": "",
          "type": "string"
        }
      ],
      "payable": false,
      "stateMutability": "view",
      "type": "function"
    },
    {
      "constant": true,
      "inputs": [],
      "name": "ipList",
      "outputs": [
        {
          "internalType": "string",
          "name": "",
          "type": "string"
        }
      ],
      "payable": false,
      "stateMutability": "view",
      "type": "function"
    },
    {
      "constant": false,
      "inputs": [
        {
          "internalType": "string",
          "name": "ipAddress",
          "type": "string"
        },
        {
          "internalType": "uint256",
          "name": "currenttime",
          "type": "uint256"
        }
      ],
      "name": "updateIpList",
      "outputs": [],
      "payable": false,
      "stateMutability": "nonpayable",
      "type": "function"
    },
    {
      "constant": true,
      "inputs": [
        {
          "internalType": "uint256",
          "name": "num",
          "type": "uint256"
        }
      ],
      "name": "getIpList",
      "outputs": [
        {
          "internalType": "string",
          "name": "",
          "type": "string"
        },
        {
          "internalType": "uint256",
          "name": "",
          "type": "uint256"
        }
      ],
      "payable": false,
      "stateMutability": "view",
      "type": "function"
    },
    {
      "constant": true,
      "inputs": [],
      "name": "getListLength",
      "outputs": [
        {
          "internalType": "uint256",
          "name": "",
          "type": "uint256"
        }
      ],
      "payable": false,
      "stateMutability": "view",
      "type": "function"
    }
  ],
  "bytecode": "0x6080604052600060035534801561001557600080fd5b506107ef806100256000396000f3fe608060405234801561001057600080fd5b50600436106100575760003560e01c80635776466a1461005c5780636537e7db1461010a5780636b6d6c92146101cf5780639558ef5814610276578063b65c531b146102f9575b600080fd5b6100886004803603602081101561007257600080fd5b8101908080359060200190929190505050610317565b6040518080602001838152602001828103825284818151815260200191508051906020019080838360005b838110156100ce5780820151818401526020810190506100b3565b50505050905090810190601f1680156100fb5780820380516001836020036101000a031916815260200191505b50935050505060405180910390f35b6101cd6004803603604081101561012057600080fd5b810190808035906020019064010000000081111561013d57600080fd5b82018360208201111561014f57600080fd5b8035906020019184600183028401116401000000008311171561017157600080fd5b91908080601f016020809104026020016040519081016040528093929190818152602001838380828437600081840152601f19601f8201169050808301925050505050505091929192908035906020019092919050505061045f565b005b6101fb600480360360208110156101e557600080fd5b81019080803590602001909291905050506105b4565b6040518080602001828103825283818151815260200191508051906020019080838360005b8381101561023b578082015181840152602081019050610220565b50505050905090810190601f1680156102685780820380516001836020036101000a031916815260200191505b509250505060405180910390f35b61027e61066d565b6040518080602001828103825283818151815260200191508051906020019080838360005b838110156102be5780820151818401526020810190506102a3565b50505050905090810190601f1680156102eb5780820380516001836020036101000a031916815260200191505b509250505060405180910390f35b61030161070b565b6040518082815260200191505060405180910390f35b606060006002838154811061032857fe5b9060005260206000200160006002858154811061034157fe5b9060005260206000200160405180828054600181600116156101000203166002900480156103a65780601f106103845761010080835404028352918201916103a6565b820191906000526020600020905b815481529060010190602001808311610392575b5050915050908152602001604051809103902054818054600181600116156101000203166002900480601f01602080910402602001604051908101604052809291908181526020018280546001816001161561010002031660029004801561044f5780601f106104245761010080835404028352916020019161044f565b820191906000526020600020905b81548152906001019060200180831161043257829003601f168201915b5050505050915091509150915091565b8160019080519060200190610475929190610715565b50600080836040518082805190602001908083835b602083106104ad578051825260208201915060208101905060208303925061048a565b6001836020036101000a0380198251168184511680821785525050505050509050019150509081526020016040518091039020541415610539576003600081548092919060010191905055506002829080600181540180825580915050906001820390600052602060002001600090919290919091509080519060200190610536929190610715565b50505b806000600160405180828054600181600116156101000203166002900480156105995780601f10610577576101008083540402835291820191610599565b820191906000526020600020905b815481529060010190602001808311610585575b50509150509081526020016040518091039020819055505050565b600281815481106105c157fe5b906000526020600020016000915090508054600181600116156101000203166002900480601f0160208091040260200160405190810160405280929190818152602001828054600181600116156101000203166002900480156106655780601f1061063a57610100808354040283529160200191610665565b820191906000526020600020905b81548152906001019060200180831161064857829003601f168201915b505050505081565b60018054600181600116156101000203166002900480601f0160208091040260200160405190810160405280929190818152602001828054600181600116156101000203166002900480156107035780601f106106d857610100808354040283529160200191610703565b820191906000526020600020905b8154815290600101906020018083116106e657829003601f168201915b505050505081565b6000600354905090565b828054600181600116156101000203166002900490600052602060002090601f016020900481019282601f1061075657805160ff1916838001178555610784565b82800160010185558215610784579182015b82811115610783578251825591602001919060010190610768565b5b5090506107919190610795565b5090565b6107b791905b808211156107b357600081600090555060010161079b565b5090565b9056fea265627a7a723158201264aff8650182ceaceb3276074c25f49d65c0754b34037823cccd4ad4666a2164736f6c63430005100032",
  "source": "pragma solidity ^0.5.16; \n\ncontract Blocklist {\n  \n  mapping (string => uint256) private timestamp; \n  string public ipList; string[] public ipArray; \n  uint256 count = 0; \n  constructor() public {\n  }\n  function updateIpList(string memory ipAddress,uint256 currenttime) public { \n     ipList = ipAddress; \n     if(timestamp[ipAddress]==0) { \n        count++; \n        ipArray.push(ipAddress);\n     }\n     timestamp[ipList] = currenttime;\n  }\n  function getIpList(uint256 num) view public returns (string memory,uint256) \n  { \n     return (ipArray[num],timestamp[ipArray[num]]);\n  }\n  \n  function getListLength() view public returns (uint256) \n { \n    return (count);\n  }\n}\n",
  "sourcePath": "/root/project/project-source-code/contracts/Blocklist.sol",
  "compiler": {
    "name": "solc",
    "version": "0.5.16+commit.9c3226ce.Emscripten.clang"
  },
  "schemaVersion": "3.2.1",
  "updatedAt": "2020-07-05T20:47:19.650Z",
  "devdoc": {
    "methods": {}
  },
  "userdoc": {
    "methods": {}
  }
}